:02000000FE2FD1
:100D7400F501F301F4010730831203139F00831676
:100D840003139F010510851005110615861186129F
:100D94000613861383120313861306138611051094
:100DA40085100515043092008830831603139200D1
:100DB40044308312031395001C309700F201F20AA9
:100DC40086160B30F100A230F000F00BE72EF10B89
:100DD400E72E00000630F1005030F000F00BF02E4A
:100DE400F10BF02E00008312031305141A30F000E7
:100DF400F00BFA2EFD2E831203138514A330F0009A
:100E0400032FF00B022F062F000083120313861703
:100E14000630F1005030F000F00B0E2FF10B0E2FC6
:100E240000007308031D172F182F5C2F8312031360
:100E340006181D2F1E2F5C2FF301F30AF201F20A8C
:100E440083160313861183120313861605150613DE
:100E5400F501A330F0002E2FF00B2D2F312F0000C1
:100E64008312031386138510A330F000392FF00B7F
:100E7400382F3C2F0000831203130510A330F00019
:100E8400432FF00B422F462F000083120313051447
:100E94001A30F000F00B4C2F4F2F831203138514DC
:100EA400A330F000552FF00B542F582F000083125D
:100EB400031386177508031D602F612F722F831289
:100EC40003138618662F672F722FF501F50A051D87
:100ED4006C2F6D2F702F05110617722F0515061331
:100EE4007408031D762F772F942F8312031385190B
:100EF4007C2F7D2F942FF401F40A72080319832F99
:100F0400842F8C2FF2018316031386158312031387
:100F14008612942FF201F20A8316031386118312A8
:100F24000313861673080319982F992FB52F83126C
:100F34000313061C9E2F9F2FB52F0D30F000F00BCE
:100F4400A12F83120313061CA82FA92FB52F0D3030
:100F5400F000F00BAB2F83120313061CB22FB32F38
:100F6400B52FF301B52F75080319B92FBA2FD62F52
:100F740083120313861CBF2FC02FD62F0D30F00011
:100F8400F00BC22F83120313861CC92FCA2FD62F2E
:100F94000D30F000F00BCC2F83120313861CD32FDB
:100FA400D42FD62FF501D62F74080319DA2FDB2F8F
:100FB400F72F83120313851DE02FE12FF72F0D3038
:100FC400F000F00BE32F83120313851DEA2FEB2FA0
:100FD400F72F0D30F000F00BED2F83120313851D56
:100FE400F42FF52FF72FF401F72F1A30F000F00B40
:0C0FF400F92FFC2F132F00288301BA2EC8
:02400E00693F08
:00000001FF
